{
  "contractName": "CoinFlipV2",
  "abi": [
    {
      "inputs": [],
      "payable": true,
      "stateMutability": "payable",
      "type": "constructor"
    },
    {
      "anonymous": false,
      "inputs": [
        {
          "indexed": false,
          "internalType": "address",
          "name": "user",
          "type": "address"
        },
        {
          "indexed": false,
          "internalType": "bool",
          "name": "status",
          "type": "bool"
        },
        {
          "indexed": false,
          "internalType": "uint256",
          "name": "reward",
          "type": "uint256"
        }
      ],
      "name": "FlipCoinResult",
      "type": "event"
    },
    {
      "anonymous": false,
      "inputs": [
        {
          "indexed": false,
          "internalType": "uint256",
          "name": "randomNumber",
          "type": "uint256"
        }
      ],
      "name": "GeneratedRandomNumber",
      "type": "event"
    },
    {
      "anonymous": false,
      "inputs": [
        {
          "indexed": false,
          "internalType": "string",
          "name": "description",
          "type": "string"
        }
      ],
      "name": "LogNewProvableQuery",
      "type": "event"
    },
    {
      "anonymous": false,
      "inputs": [
        {
          "indexed": false,
          "internalType": "bytes32",
          "name": "queryId",
          "type": "bytes32"
        }
      ],
      "name": "LogQueryID",
      "type": "event"
    },
    {
      "anonymous": false,
      "inputs": [
        {
          "indexed": false,
          "internalType": "address",
          "name": "owner",
          "type": "address"
        },
        {
          "indexed": false,
          "internalType": "uint256",
          "name": "amount",
          "type": "uint256"
        },
        {
          "indexed": false,
          "internalType": "uint256",
          "name": "houseBalance",
          "type": "uint256"
        }
      ],
      "name": "OwnerWithdrawl",
      "type": "event"
    },
    {
      "anonymous": false,
      "inputs": [
        {
          "indexed": true,
          "internalType": "address",
          "name": "user",
          "type": "address"
        },
        {
          "indexed": false,
          "internalType": "uint256",
          "name": "amount",
          "type": "uint256"
        }
      ],
      "name": "UserWithdrawl",
      "type": "event"
    },
    {
      "anonymous": false,
      "inputs": [
        {
          "indexed": false,
          "internalType": "bool",
          "name": "status",
          "type": "bool"
        }
      ],
      "name": "WaitingStatus",
      "type": "event"
    },
    {
      "constant": true,
      "inputs": [
        {
          "internalType": "address",
          "name": "",
          "type": "address"
        }
      ],
      "name": "balances",
      "outputs": [
        {
          "internalType": "uint256",
          "name": "",
          "type": "uint256"
        }
      ],
      "payable": false,
      "stateMutability": "view",
      "type": "function"
    },
    {
      "constant": true,
      "inputs": [],
      "name": "houseBalance",
      "outputs": [
        {
          "internalType": "uint256",
          "name": "",
          "type": "uint256"
        }
      ],
      "payable": false,
      "stateMutability": "view",
      "type": "function"
    },
    {
      "constant": true,
      "inputs": [],
      "name": "latestNumber",
      "outputs": [
        {
          "internalType": "uint256",
          "name": "",
          "type": "uint256"
        }
      ],
      "payable": false,
      "stateMutability": "view",
      "type": "function"
    },
    {
      "constant": true,
      "inputs": [],
      "name": "owner",
      "outputs": [
        {
          "internalType": "address",
          "name": "",
          "type": "address"
        }
      ],
      "payable": false,
      "stateMutability": "view",
      "type": "function"
    },
    {
      "constant": true,
      "inputs": [
        {
          "internalType": "address",
          "name": "",
          "type": "address"
        }
      ],
      "name": "results",
      "outputs": [
        {
          "internalType": "uint256",
          "name": "reward",
          "type": "uint256"
        },
        {
          "internalType": "bool",
          "name": "win",
          "type": "bool"
        }
      ],
      "payable": false,
      "stateMutability": "view",
      "type": "function"
    },
    {
      "constant": true,
      "inputs": [
        {
          "internalType": "bytes32",
          "name": "",
          "type": "bytes32"
        }
      ],
      "name": "waiting",
      "outputs": [
        {
          "internalType": "address payable",
          "name": "user",
          "type": "address"
        },
        {
          "internalType": "uint256",
          "name": "betAmount",
          "type": "uint256"
        },
        {
          "internalType": "uint256",
          "name": "headsOrTails",
          "type": "uint256"
        }
      ],
      "payable": false,
      "stateMutability": "view",
      "type": "function"
    },
    {
      "constant": true,
      "inputs": [
        {
          "internalType": "address",
          "name": "",
          "type": "address"
        }
      ],
      "name": "waitingStatus",
      "outputs": [
        {
          "internalType": "bool",
          "name": "",
          "type": "bool"
        }
      ],
      "payable": false,
      "stateMutability": "view",
      "type": "function"
    },
    {
      "constant": false,
      "inputs": [
        {
          "internalType": "uint256",
          "name": "_headsOrTails",
          "type": "uint256"
        }
      ],
      "name": "flipCoin",
      "outputs": [],
      "payable": true,
      "stateMutability": "payable",
      "type": "function"
    },
    {
      "constant": false,
      "inputs": [
        {
          "internalType": "bytes32",
          "name": "_myid",
          "type": "bytes32"
        },
        {
          "internalType": "string",
          "name": "_result",
          "type": "string"
        }
      ],
      "name": "__callback",
      "outputs": [],
      "payable": false,
      "stateMutability": "nonpayable",
      "type": "function"
    },
    {
      "constant": false,
      "inputs": [
        {
          "internalType": "bytes32",
          "name": "_queryId",
          "type": "bytes32"
        },
        {
          "internalType": "string",
          "name": "_result",
          "type": "string"
        },
        {
          "internalType": "bytes",
          "name": "_proof",
          "type": "bytes"
        }
      ],
      "name": "__callback",
      "outputs": [],
      "payable": false,
      "stateMutability": "nonpayable",
      "type": "function"
    },
    {
      "constant": false,
      "inputs": [
        {
          "internalType": "address payable",
          "name": "_to",
          "type": "address"
        },
        {
          "internalType": "uint256",
          "name": "_amount",
          "type": "uint256"
        }
      ],
      "name": "userWithdraw",
      "outputs": [],
      "payable": false,
      "stateMutability": "nonpayable",
      "type": "function"
    },
    {
      "constant": false,
      "inputs": [
        {
          "internalType": "uint256",
          "name": "_amount",
          "type": "uint256"
        }
      ],
      "name": "ownerWithdraw",
      "outputs": [],
      "payable": false,
      "stateMutability": "nonpayable",
      "type": "function"
    },
    {
      "constant": true,
      "inputs": [],
      "name": "getHouseBalance",
      "outputs": [
        {
          "internalType": "uint256",
          "name": "",
          "type": "uint256"
        }
      ],
      "payable": false,
      "stateMutability": "view",
      "type": "function"
    },
    {
      "constant": true,
      "inputs": [
        {
          "internalType": "address",
          "name": "_user",
          "type": "address"
        }
      ],
      "name": "getUserBalance",
      "outputs": [
        {
          "internalType": "uint256",
          "name": "",
          "type": "uint256"
        }
      ],
      "payable": false,
      "stateMutability": "view",
      "type": "function"
    }
  ],
  "bytecode": "0x6080604052336000806101000a81548173ffffffffffffffffffffffffffffffffffffffff021916908373ffffffffffffffffffffffffffffffffffffffff160217905550671bc16d674ec80000600781905550613360806100626000396000f3fe6080604052600436106100dd5760003560e01c8063477348921161007f57806367084eb31161005957806367084eb3146105c85780638da5cb5b146105f3578063dc34b0aa1461064a578063ef378f6214610675576100dd565b806347734892146104cc5780634a938975146105315780635f5be1f41461059a576100dd565b806333f707d1116100bb57806333f707d11461024457806338bbfa501461027f5780633a831e07146103e85780633e458a8e14610471576100dd565b806305a8d569146100e257806327dc297e1461010d57806327e235e3146101df575b600080fd5b3480156100ee57600080fd5b506100f76106e5565b6040518082815260200191505060405180910390f35b34801561011957600080fd5b506101dd6004803603604081101561013057600080fd5b81019080803590602001909291908035906020019064010000000081111561015757600080fd5b82018360208201111561016957600080fd5b8035906020019184600183028401116401000000008311171561018b57600080fd5b91908080601f016020809104026020016040519081016040528093929190818152602001838380828437600081840152601f19601f8201169050808301925050505050505091929192905050506106ef565b005b3480156101eb57600080fd5b5061022e6004803603602081101561020257600080fd5b81019080803573ffffffffffffffffffffffffffffffffffffffff169060200190929190505050610732565b6040518082815260200191505060405180910390f35b34801561025057600080fd5b5061027d6004803603602081101561026757600080fd5b810190808035906020019092919050505061074a565b005b34801561028b57600080fd5b506103e6600480360360608110156102a257600080fd5b8101908080359060200190929190803590602001906401000000008111156102c957600080fd5b8201836020820111156102db57600080fd5b803590602001918460018302840111640100000000831117156102fd57600080fd5b91908080601f016020809104026020016040519081016040528093929190818152602001838380828437600081840152601f19601f8201169050808301925050505050505091929192908035906020019064010000000081111561036057600080fd5b82018360208201111561037257600080fd5b8035906020019184600183028401116401000000008311171561039457600080fd5b91908080601f016020809104026020016040519081016040528093929190818152602001838380828437600081840152601f19601f8201169050808301925050505050505091929192905050506108ce565b005b3480156103f457600080fd5b506104216004803603602081101561040b57600080fd5b8101908080359060200190929190505050610f63565b604051808473ffffffffffffffffffffffffffffffffffffffff1673ffffffffffffffffffffffffffffffffffffffff168152602001838152602001828152602001935050505060405180910390f35b34801561047d57600080fd5b506104ca6004803603604081101561049457600080fd5b81019080803573ffffffffffffffffffffffffffffffffffffffff16906020019092919080359060200190929190505050610fad565b005b3480156104d857600080fd5b5061051b600480360360208110156104ef57600080fd5b81019080803573ffffffffffffffffffffffffffffffffffffffff169060200190929190505050611148565b6040518082815260200191505060405180910390f35b34801561053d57600080fd5b506105806004803603602081101561055457600080fd5b81019080803573ffffffffffffffffffffffffffffffffffffffff169060200190929190505050611191565b604051808215151515815260200191505060405180910390f35b6105c6600480360360208110156105b057600080fd5b81019080803590602001909291905050506111b1565b005b3480156105d457600080fd5b506105dd61148a565b6040518082815260200191505060405180910390f35b3480156105ff57600080fd5b50610608611490565b604051808273ffffffffffffffffffffffffffffffffffffffff1673ffffffffffffffffffffffffffffffffffffffff16815260200191505060405180910390f35b34801561065657600080fd5b5061065f6114b5565b6040518082815260200191505060405180910390f35b34801561068157600080fd5b506106c46004803603602081101561069857600080fd5b81019080803573ffffffffffffffffffffffffffffffffffffffff1690602001909291905050506114bb565b60405180838152602001821515151581526020019250505060405180910390f35b6000600754905090565b61072e828260006040519080825280601f01601f1916602001820160405280156107285781602001600182028038833980820191505090505b506108ce565b5050565b600a6020528060005260406000206000915090505481565b6000809054906101000a900473ffffffffffffffffffffffffffffffffffffffff1673ffffffffffffffffffffffffffffffffffffffff163373ffffffffffffffffffffffffffffffffffffffff16146107a357600080fd5b6007548111156107fe576040517f08c379a00000000000000000000000000000000000000000000000000000000081526004018080602001828103825260408152602001806132946040913960400191505060405180910390fd5b600081905080600754036007819055503373ffffffffffffffffffffffffffffffffffffffff166108fc829081150290604051600060405180830381858888f19350505050158015610854573d6000803e3d6000fd5b507ffabbdff833edbf727f39832bffbd86371968fe21eff1f7e787a39ddbc28c075d3382600754604051808473ffffffffffffffffffffffffffffffffffffffff1673ffffffffffffffffffffffffffffffffffffffff168152602001838152602001828152602001935050505060405180910390a15050565b6002826040516020018082805190602001908083835b6020831061090757805182526020820191506020810190506020830392506108e4565b6001836020036101000a0380198251168184511680821785525050505050509050019150506040516020818303038152906040528051906020012060001c8161094c57fe5b066006819055507fd054642608b20770eee6964340fbf033dfd800f8f86a7f4aa60eb1eb3a0155906006546040518082815260200191505060405180910390a160065460086000858152602001908152602001600020600201541415610ca7576109b461315a565b6001816020019015159081151581525050600260086000868152602001908152602001600020600101540281600001818152505080600960006008600088815260200190815260200160002060000160009054906101000a900473ffffffffffffffffffffffffffffffffffffffff1673ffffffffffffffffffffffffffffffffffffffff1673ffffffffffffffffffffffffffffffffffffffff1681526020019081526020016000206000820151816000015560208201518160010160006101000a81548160ff0219169083151502179055509050508060000151600a60006008600088815260200190815260200160002060000160009054906101000a900473ffffffffffffffffffffffffffffffffffffffff1673ffffffffffffffffffffffffffffffffffffffff1673ffffffffffffffffffffffffffffffffffffffff168152602001908152602001600020600082825401925050819055506000600b60006008600088815260200190815260200160002060000160009054906101000a900473ffffffffffffffffffffffffffffffffffffffff1673ffffffffffffffffffffffffffffffffffffffff1673ffffffffffffffffffffffffffffffffffffffff16815260200190815260200160002060006101000a81548160ff0219169083151502179055507edbb6d905b36582c040fbe1fe37804f620a83d6a52f39544c62e96f0ed3d5286008600086815260200190815260200160002060000160009054906101000a900473ffffffffffffffffffffffffffffffffffffffff1682602001518360000151604051808473ffffffffffffffffffffffffffffffffffffffff1673ffffffffffffffffffffffffffffffffffffffff16815260200183151515158152602001828152602001935050505060405180910390a160086000858152602001908152602001600020600080820160006101000a81549073ffffffffffffffffffffffffffffffffffffffff021916905560018201600090556002820160009055505050610f5e565b610caf61315a565b6000816020019015159081151581525050600081600001818152505080600960006008600088815260200190815260200160002060000160009054906101000a900473ffffffffffffffffffffffffffffffffffffffff1673ffffffffffffffffffffffffffffffffffffffff1673ffffffffffffffffffffffffffffffffffffffff1681526020019081526020016000206000820151816000015560208201518160010160006101000a81548160ff02191690831515021790555090505060086000858152602001908152602001600020600101546007600082825401925050819055506000600b60006008600088815260200190815260200160002060000160009054906101000a900473ffffffffffffffffffffffffffffffffffffffff1673ffffffffffffffffffffffffffffffffffffffff1673ffffffffffffffffffffffffffffffffffffffff16815260200190815260200160002060006101000a81548160ff0219169083151502179055507edbb6d905b36582c040fbe1fe37804f620a83d6a52f39544c62e96f0ed3d5286008600086815260200190815260200160002060000160009054906101000a900473ffffffffffffffffffffffffffffffffffffffff1682602001518360000151604051808473ffffffffffffffffffffffffffffffffffffffff1673ffffffffffffffffffffffffffffffffffffffff16815260200183151515158152602001828152602001935050505060405180910390a17fd054642608b20770eee6964340fbf033dfd800f8f86a7f4aa60eb1eb3a0155906006546040518082815260200191505060405180910390a160086000858152602001908152602001600020600080820160006101000a81549073ffffffffffffffffffffffffffffffffffffffff0219169055600182016000905560028201600090555050505b505050565b60086020528060005260406000206000915090508060000160009054906101000a900473ffffffffffffffffffffffffffffffffffffffff16908060010154908060020154905083565b80600a60003373ffffffffffffffffffffffffffffffffffffffff1673ffffffffffffffffffffffffffffffffffffffff168152602001908152602001600020541015611062576040517f08c379a000000000000000000000000000000000000000000000000000000000815260040180806020018281038252601c8152602001807f4e6f7420656e6f7567682066756e647320746f2077697468647261770000000081525060200191505060405180910390fd5b80600a60003373ffffffffffffffffffffffffffffffffffffffff1673ffffffffffffffffffffffffffffffffffffffff168152602001908152602001600020600082825403925050819055508173ffffffffffffffffffffffffffffffffffffffff166108fc829081150290604051600060405180830381858888f193505050501580156110f5573d6000803e3d6000fd5b508173ffffffffffffffffffffffffffffffffffffffff167f94b43fa2fd20b96bc79e0b6bd4a41933cef3e7d3d1be433287da45aec1066133826040518082815260200191505060405180910390a25050565b6000600a60008373ffffffffffffffffffffffffffffffffffffffff1673ffffffffffffffffffffffffffffffffffffffff168152602001908152602001600020549050919050565b600b6020528060005260406000206000915054906101000a900460ff1681565b662386f26fc10000803410156111c657600080fd5b60001515600b60003373ffffffffffffffffffffffffffffffffffffffff1673ffffffffffffffffffffffffffffffffffffffff16815260200190815260200160002060009054906101000a900460ff1615151461128c576040517f08c379a00000000000000000000000000000000000000000000000000000000081526004018080602001828103825260178152602001807f796f752061726520616c726561647920706c6179696e6700000000000000000081525060200191505060405180910390fd5b3073ffffffffffffffffffffffffffffffffffffffff16316002340211156112ff576040517f08c379a00000000000000000000000000000000000000000000000000000000081526004018080602001828103825260318152602001806132fb6031913960400191505060405180910390fd5b600082148061130e5750600182145b611380576040517f08c379a000000000000000000000000000000000000000000000000000000000815260040180806020018281038252601a8152602001807f4d7573742063616e206f6e6c7920656e7465722030206f72203100000000000081525060200191505060405180910390fd5b6000809050600062030d409050600061139b836001846114ec565b90507fc4dc360d0a9c0677a3379ae0a3d81e887f761e65fdf3d7e00859d1bcd3c473896040518080602001828103825260278152602001806132d46027913960400191505060405180910390a16001600b60003373ffffffffffffffffffffffffffffffffffffffff1673ffffffffffffffffffffffffffffffffffffffff16815260200190815260200160002060006101000a81548160ff02191690831515021790555061144c81333488611a87565b7fd02b34491cb9c22e0422e9d84ad8494da4d14ca4691a110bdfc5dec273ebe12c816040518082815260200191505060405180910390a15050505050565b60075481565b6000809054906101000a900473ffffffffffffffffffffffffffffffffffffffff1681565b60065481565b60096020528060005260406000206000915090508060000154908060010160009054906101000a900460ff16905082565b600080831180156114fe575060208311155b61150757600080fd5b600a84029350606060016040519080825280601f01601f1916602001820160405280156115435781602001600182028038833980820191505090505b5090508360f81b8160008151811061155757fe5b60200101907effffffffffffffffffffffffffffffffffffffffffffffffffffffffffffff1916908160001a905350606060206040519080825280601f01601f1916602001820160405280156115bc5781602001600182028038833980820191505090505b509050606060206040519080825280601f01601f1916602001820160405280156115f55781602001600182028038833980820191505090505b5090506000611602611b54565b905060208352424118600143034018602084015260208252806020830152606060206040519080825280601f01601f1916602001820160405280156116565781602001600182028038833980820191505090505b509050886020820152606060086040519080825280601f01601f1916602001820160405280156116955781602001600182028038833980820191505090505b5090506116a88260186008846000611e74565b506116b1613176565b604051806080016040528087815260200188815260200186815260200184815250905060006117166040518060400160405280600681526020017f72616e646f6d0000000000000000000000000000000000000000000000000000815250838c611ed3565b9050606060086040519080825280601f01601f19166020018201604052801561174e5781602001600182028038833980820191505090505b50905060208401517f0100000000000000000000000000000000000000000000000000000000000000810460278301537e01000000000000000000000000000000000000000000000000000000000000810460268301537d010000000000000000000000000000000000000000000000000000000000810460258301537c0100000000000000000000000000000000000000000000000000000000810460248301537b01000000000000000000000000000000000000000000000000000000810460238301537a010000000000000000000000000000000000000000000000000000810460228301537901000000000000000000000000000000000000000000000000008104602183015378010000000000000000000000000000000000000000000000008104602083015350611a7482828560016004811061188d57fe5b60200201516002876000600481106118a157fe5b60200201516040518082805190602001908083835b602083106118d957805182526020820191506020810190506020830392506118b6565b6001836020036101000a038019825116818451168082178552505050505050905001915050602060405180830381855afa15801561191b573d6000803e3d6000fd5b5050506040513d602081101561193057600080fd5b81019080805190602001909291905050508760026004811061194e57fe5b60200201516040516020018085805190602001908083835b602083106119895780518252602082019150602081019050602083039250611966565b6001836020036101000a03801982511681845116808217855250505050505090500184805190602001908083835b602083106119da57805182526020820191506020810190506020830392506119b7565b6001836020036101000a03801982511681845116808217855250505050505090500183815260200182805190602001908083835b60208310611a315780518252602082019150602081019050602083039250611a0e565b6001836020036101000a03801982511681845116808217855250505050505090500194505050505060405160208183030381529060405280519060200120612242565b8199505050505050505050509392505050565b611a8f61319d565b83816000019073ffffffffffffffffffffffffffffffffffffffff16908173ffffffffffffffffffffffffffffffffffffffff16815250508281602001818152505081816040018181525050806008600087815260200190815260200160002060008201518160000160006101000a81548173ffffffffffffffffffffffffffffffffffffffff021916908373ffffffffffffffffffffffffffffffffffffffff16021790555060208201518160010155604082015181600201559050505050505050565b60008073ffffffffffffffffffffffffffffffffffffffff16600260009054906101000a900473ffffffffffffffffffffffffffffffffffffffff1673ffffffffffffffffffffffffffffffffffffffff161480611bdc57506000611bda600260009054906101000a900473ffffffffffffffffffffffffffffffffffffffff1661225e565b145b15611bed57611beb6000612269565b505b600260009054906101000a900473ffffffffffffffffffffffffffffffffffffffff1673ffffffffffffffffffffffffffffffffffffffff166338cc48316040518163ffffffff1660e01b8152600401602060405180830381600087803b158015611c5757600080fd5b505af1158015611c6b573d6000803e3d6000fd5b505050506040513d6020811015611c8157600080fd5b810190808051906020019092919050505073ffffffffffffffffffffffffffffffffffffffff16600160009054906101000a900473ffffffffffffffffffffffffffffffffffffffff1673ffffffffffffffffffffffffffffffffffffffff1614611dcc57600260009054906101000a900473ffffffffffffffffffffffffffffffffffffffff1673ffffffffffffffffffffffffffffffffffffffff166338cc48316040518163ffffffff1660e01b8152600401602060405180830381600087803b158015611d5057600080fd5b505af1158015611d64573d6000803e3d6000fd5b505050506040513d6020811015611d7a57600080fd5b8101908080519060200190929190505050600160006101000a81548173ffffffffffffffffffffffffffffffffffffffff021916908373ffffffffffffffffffffffffffffffffffffffff1602179055505b600160009054906101000a900473ffffffffffffffffffffffffffffffffffffffff1673ffffffffffffffffffffffffffffffffffffffff1663abaa5f3e6040518163ffffffff1660e01b815260040160206040518083038186803b158015611e3457600080fd5b505afa158015611e48573d6000803e3d6000fd5b505050506040513d6020811015611e5e57600080fd5b8101908080519060200190929190505050905090565b6060600082850190508084511015611e8b57600080fd5b600086602001905060008460200190505b868860200101821015611ec45781890151808288015250602082019150602081019050611e9c565b85935050505095945050505050565b60008073ffffffffffffffffffffffffffffffffffffffff16600260009054906101000a900473ffffffffffffffffffffffffffffffffffffffff1673ffffffffffffffffffffffffffffffffffffffff161480611f5b57506000611f59600260009054906101000a900473ffffffffffffffffffffffffffffffffffffffff1661225e565b145b15611f6c57611f6a6000612269565b505b600260009054906101000a900473ffffffffffffffffffffffffffffffffffffffff1673ffffffffffffffffffffffffffffffffffffffff166338cc48316040518163ffffffff1660e01b8152600401602060405180830381600087803b158015611fd657600080fd5b505af1158015611fea573d6000803e3d6000fd5b505050506040513d602081101561200057600080fd5b810190808051906020019092919050505073ffffffffffffffffffffffffffffffffffffffff16600160009054906101000a900473ffffffffffffffffffffffffffffffffffffffff1673ffffffffffffffffffffffffffffffffffffffff161461214b57600260009054906101000a900473ffffffffffffffffffffffffffffffffffffffff1673ffffffffffffffffffffffffffffffffffffffff166338cc48316040518163ffffffff1660e01b8152600401602060405180830381600087803b1580156120cf57600080fd5b505af11580156120e3573d6000803e3d6000fd5b505050506040513d60208110156120f957600080fd5b8101908080519060200190929190505050600160006101000a81548173ffffffffffffffffffffffffffffffffffffffff021916908373ffffffffffffffffffffffffffffffffffffffff1602179055505b6060600460405190808252806020026020018201604052801561218257816020015b606081526020019060019003908161216d5790505b5090508360006004811061219257fe5b6020020151816000815181106121a457fe5b6020026020010181905250836001600481106121bc57fe5b6020020151816001815181106121ce57fe5b6020026020010181905250836002600481106121e657fe5b6020020151816002815181106121f857fe5b60200260200101819052508360036004811061221057fe5b60200201518160038151811061222257fe5b602002602001018190525061223885828561227a565b9150509392505050565b8060046000848152602001908152602001600020819055505050565b6000813b9050919050565b60006122736127e0565b9050919050565b60008073ffffffffffffffffffffffffffffffffffffffff16600260009054906101000a900473ffffffffffffffffffffffffffffffffffffffff1673ffffffffffffffffffffffffffffffffffffffff16148061230257506000612300600260009054906101000a900473ffffffffffffffffffffffffffffffffffffffff1661225e565b145b15612313576123116000612269565b505b600260009054906101000a900473ffffffffffffffffffffffffffffffffffffffff1673ffffffffffffffffffffffffffffffffffffffff166338cc48316040518163ffffffff1660e01b8152600401602060405180830381600087803b15801561237d57600080fd5b505af1158015612391573d6000803e3d6000fd5b505050506040513d60208110156123a757600080fd5b810190808051906020019092919050505073ffffffffffffffffffffffffffffffffffffffff16600160009054906101000a900473ffffffffffffffffffffffffffffffffffffffff1673ffffffffffffffffffffffffffffffffffffffff16146124f257600260009054906101000a900473ffffffffffffffffffffffffffffffffffffffff1673ffffffffffffffffffffffffffffffffffffffff166338cc48316040518163ffffffff1660e01b8152600401602060405180830381600087803b15801561247657600080fd5b505af115801561248a573d6000803e3d6000fd5b505050506040513d60208110156124a057600080fd5b8101908080519060200190929190505050600160006101000a81548173ffffffffffffffffffffffffffffffffffffffff021916908373ffffffffffffffffffffffffffffffffffffffff1602179055505b6000600160009054906101000a900473ffffffffffffffffffffffffffffffffffffffff1673ffffffffffffffffffffffffffffffffffffffff16632ef3accc86856040518363ffffffff1660e01b81526004018080602001838152602001828103825284818151815260200191508051906020019080838360005b8381101561258957808201518184015260208101905061256e565b50505050905090810190601f1680156125b65780820380516001836020036101000a031916815260200191505b509350505050602060405180830381600087803b1580156125d657600080fd5b505af11580156125ea573d6000803e3d6000fd5b505050506040513d602081101561260057600080fd5b81019080805190602001909291905050509050823a02670de0b6b3a764000001811115612633576000801b9150506127d9565b606061263e85612d37565b9050600160009054906101000a900473ffffffffffffffffffffffffffffffffffffffff1673ffffffffffffffffffffffffffffffffffffffff1663c55c1cb68360008985896040518663ffffffff1660e01b8152600401808581526020018060200180602001848152602001838103835286818151815260200191508051906020019080838360005b838110156126e35780820151818401526020810190506126c8565b50505050905090810190601f1680156127105780820380516001836020036101000a031916815260200191505b50838103825285818151815260200191508051906020019080838360005b8381101561274957808201518184015260208101905061272e565b50505050905090810190601f1680156127765780820380516001836020036101000a031916815260200191505b5096505050505050506020604051808303818588803b15801561279857600080fd5b505af11580156127ac573d6000803e3d6000fd5b50505050506040513d60208110156127c357600080fd5b8101908080519060200190929190505050925050505b9392505050565b600080612800731d3b2638a7cc9f2cb3d298a3da7a90b67e5506ed61225e565b11156128a257731d3b2638a7cc9f2cb3d298a3da7a90b67e5506ed600260006101000a81548173ffffffffffffffffffffffffffffffffffffffff021916908373ffffffffffffffffffffffffffffffffffffffff1602179055506128996040518060400160405280600b81526020017f6574685f6d61696e6e6574000000000000000000000000000000000000000000815250612db7565b60019050612d34565b60006128c173c03a2615d5efaf5f49f60b7bb6583eaec212fdf161225e565b11156129635773c03a2615d5efaf5f49f60b7bb6583eaec212fdf1600260006101000a81548173ffffffffffffffffffffffffffffffffffffffff021916908373ffffffffffffffffffffffffffffffffffffffff16021790555061295a6040518060400160405280600c81526020017f6574685f726f707374656e330000000000000000000000000000000000000000815250612db7565b60019050612d34565b600061298273b7a07bcf2ba2f2703b24c0691b5278999c59ac7e61225e565b1115612a245773b7a07bcf2ba2f2703b24c0691b5278999c59ac7e600260006101000a81548173ffffffffffffffffffffffffffffffffffffffff021916908373ffffffffffffffffffffffffffffffffffffffff160217905550612a1b6040518060400160405280600981526020017f6574685f6b6f76616e0000000000000000000000000000000000000000000000815250612db7565b60019050612d34565b6000612a4373146500cfd35b22e4a392fe0adc06de1a1368ed4861225e565b1115612ae55773146500cfd35b22e4a392fe0adc06de1a1368ed48600260006101000a81548173ffffffffffffffffffffffffffffffffffffffff021916908373ffffffffffffffffffffffffffffffffffffffff160217905550612adc6040518060400160405280600b81526020017f6574685f72696e6b656279000000000000000000000000000000000000000000815250612db7565b60019050612d34565b6000612b0473a2998efd205fb9d4b4963afb70778d6354ad3a4161225e565b1115612ba65773a2998efd205fb9d4b4963afb70778d6354ad3a41600260006101000a81548173ffffffffffffffffffffffffffffffffffffffff021916908373ffffffffffffffffffffffffffffffffffffffff160217905550612b9d6040518060400160405280600a81526020017f6574685f676f65726c6900000000000000000000000000000000000000000000815250612db7565b60019050612d34565b6000612bc5736f485c8bf6fc43ea212e93bbf8ce046c7f1cb47561225e565b1115612c2957736f485c8bf6fc43ea212e93bbf8ce046c7f1cb475600260006101000a81548173ffffffffffffffffffffffffffffffffffffffff021916908373ffffffffffffffffffffffffffffffffffffffff16021790555060019050612d34565b6000612c487320e12a1f859b3feae5fb2a0a32c18f5a65555bbf61225e565b1115612cac577320e12a1f859b3feae5fb2a0a32c18f5a65555bbf600260006101000a81548173ffffffffffffffffffffffffffffffffffffffff021916908373ffffffffffffffffffffffffffffffffffffffff16021790555060019050612d34565b6000612ccb7351efaf4c8b3c9afbd5ab9f4bbc82784ab6ef8faa61225e565b1115612d2f577351efaf4c8b3c9afbd5ab9f4bbc82784ab6ef8faa600260006101000a81548173ffffffffffffffffffffffffffffffffffffffff021916908373ffffffffffffffffffffffffffffffffffffffff16021790555060019050612d34565b600090505b90565b6060612d41612dd1565b612d496131d4565b612d5581610400612ddd565b612d5e81612e27565b60008090505b8351811015612da057612d93848281518110612d7c57fe5b602002602001015183612e3590919063ffffffff16565b8080600101915050612d64565b50612daa81612e5a565b8060000151915050919050565b8060039080519060200190612dcd9291906131ee565b5050565b60405180590338823950565b6000819050600060208281612dee57fe5b0614612e075760208181612dfe57fe5b06602003810190505b808360200181815250506040518084526000815281810160405250505050565b612e32816004612e68565b50565b612e428260028351612e89565b612e558183612fc990919063ffffffff16565b505050565b612e65816007612e68565b50565b612e85601f60058360ff16901b178361307490919063ffffffff16565b5050565b60178111612eb557612eb08160058460ff16901b60ff16178461307490919063ffffffff16565b612fc4565b60ff8111612ef657612eda601860058460ff16901b178461307490919063ffffffff16565b612ef0816001856130b49092919063ffffffff16565b50612fc3565b61ffff8111612f3857612f1c601960058460ff16901b178461307490919063ffffffff16565b612f32816002856130b49092919063ffffffff16565b50612fc2565b63ffffffff8111612f7c57612f60601a60058460ff16901b178461307490919063ffffffff16565b612f76816004856130b49092919063ffffffff16565b50612fc1565b67ffffffffffffffff8111612fc057612fa8601b60058460ff16901b178461307490919063ffffffff16565b612fbe816008856130b49092919063ffffffff16565b505b5b5b5b5b505050565b612fd16131d4565b8260200151836000015151835101111561300157613000836002612ffa8660200151865161311b565b02613137565b5b60008060008451905085518051602081830101945086518101825260208701935050505b602081106130485781518352602083019250602082019150602081039050613025565b60006001826020036101000a039050801983511681855116818117865250508694505050505092915050565b8160200151600183600001515101111561309a57613099826002846020015102613137565b5b815180516020818301018381536001820183525050505050565b6130bc6131d4565b8360200151846000015151830111156130ea576130e98460026130e387602001518661311b565b02613137565b5b60006001836101000a0390508451805184818301018684198251161781528582018352505050849150509392505050565b60008183111561312d57829050613131565b8190505b92915050565b60608260000151905061314a8383612ddd565b6131548382612fc9565b50505050565b6040518060400160405280600081526020016000151581525090565b60405180608001604052806004905b60608152602001906001900390816131855790505090565b6040518060600160405280600073ffffffffffffffffffffffffffffffffffffffff16815260200160008152602001600081525090565b604051806040016040528060608152602001600081525090565b828054600181600116156101000203166002900490600052602060002090601f016020900481019282601f1061322f57805160ff191683800117855561325d565b8280016001018555821561325d579182015b8281111561325c578251825591602001919060010190613241565b5b50905061326a919061326e565b5090565b61329091905b8082111561328c576000816000905550600101613274565b5090565b9056fe536f6d657468696e672069732077726f6e672c20686f75736542616c616e636520616e6420636f6e74726163742062616c616e636520646f6e74206d6174636850726f7661626c65207175657279207761732073656e742c206177616974696e67207265706c795468652062657420616d6f756e742063616e6e6f7420657863656564207468652070617961626c65206a61636b706f7421a265627a7a7231582059eacf1005489b5ed23d0cf0b2c102daa407aec74687eeaea066c61be7e3247064736f6c634300050c0032",
  "source": "pragma solidity 0.5.12;\n\nimport \"./Ownable.sol\";\n//import \"@openzeppelin/contracts/math/SafeMath.sol\";\nimport \"./provableAPI.sol\";\n\n\ncontract CoinFlipV2 is Ownable, usingProvable {\n //   using SafeMath for uint;\n\n    //Variables\n    uint constant NUM_RANDOM_BYTES_REQUESTED = 1;\n    uint public latestNumber;\n    uint public houseBalance;\n\n    //Modifiers\n    modifier costs(uint value) {\n        require(msg.value >= value);\n        _;\n    }\n\n    //structs\n    struct Bet {\n        address payable user;\n        uint betAmount;\n        uint headsOrTails;\n    }\n\n    struct Result {\n        uint reward;\n        bool win;\n    }\n\n    //Mappings\n    mapping(bytes32 => Bet) public waiting;\n    mapping(address => Result) public results;\n    mapping(address => uint) public balances;\n    mapping(address => bool) public waitingStatus;\n\n    //Events\n    event FlipCoinResult (address user, bool status, uint reward);\n    event LogNewProvableQuery (string description);\n    event GeneratedRandomNumber (uint randomNumber);\n    event WaitingStatus (bool status);\n    event LogQueryID (bytes32 queryId);\n    event OwnerWithdrawl (address owner, uint amount, uint houseBalance);\n    event UserWithdrawl (address indexed user, uint amount);\n    \n    //Constructor\n    constructor() public payable {\n        houseBalance = 2 ether;\n    }\n\n    //Functions\n    function flipCoin(uint _headsOrTails) public payable costs(0.01 ether) {\n        require(waitingStatus[msg.sender] == false, \"you are already playing\");\n        require((msg.value * 2) <= (address(this).balance), \"The bet amount cannot exceed the payable jackpot!\");\n        require(_headsOrTails == 0 || _headsOrTails == 1, \"Must can only enter 0 or 1\");\n\n        //starting oracle call\n        uint QUERY_EXECUTION_DELAY = 0;\n        uint GAS_FOR_CALLBACK = 200000;\n\n        //below can be un-commented along with testRandom function for testing off-chain\n        //bytes32 queryId = testRandom();\n\n        bytes32 queryId = provable_newRandomDSQuery(\n            QUERY_EXECUTION_DELAY,\n            NUM_RANDOM_BYTES_REQUESTED,\n            GAS_FOR_CALLBACK\n            );\n        \n\n        emit LogNewProvableQuery(\"Provable query was sent, awaiting reply\");\n        // set player waiting to true\n        waitingStatus[msg.sender] = true;\n\n        //set user and bet amounts in mappings\n        setBet(queryId, msg.sender, msg.value, _headsOrTails);\n\n        //log qery id event emitted\n        emit LogQueryID(queryId);\n    }\n\n    function __callback(bytes32 _queryId, string memory _result, bytes memory _proof) public {\n        //temporarily commented out require while not on testnet\n        //require(msg.sender == provable_cbAddress());\n        latestNumber = uint(keccak256(abi.encodePacked(_result))) % 2;\n        \n        //emit event with latest random number generated\n        emit GeneratedRandomNumber(latestNumber);\n\n        //to do\n        // if random number is equal to user heads or tails then double reward and add t user balance. remove that amount fromm housebalance\n        // else add betamount to housebalance\n        // emit generated random number\n        // emit flip coin result\n\n        if (waiting[_queryId].headsOrTails == latestNumber) {\n            //create new result to log users win\n            Result memory newResult;\n            newResult.win = true;\n            newResult.reward = waiting[_queryId].betAmount * 2;\n            results[waiting[_queryId].user] = newResult;\n\n            //add reward to user balance\n            balances[waiting[_queryId].user] += newResult.reward;\n\n            //set waiting status to false since flip has ended\n            waitingStatus[waiting[_queryId].user] = false;\n\n            //emit flip result event\n            emit FlipCoinResult(waiting[_queryId].user, newResult.win , newResult.reward);  \n            \n            //reset waiting mapping\n            delete waiting[_queryId];\n        }\n        \n        else { \n            //create new result to log the users losing flip\n            Result memory newResult;\n            newResult.win = false;\n            newResult.reward = 0;\n            results[waiting[_queryId].user] = newResult;\n\n            //add bet amount to house balance\n            houseBalance += waiting[_queryId].betAmount;\n           \n            //set waiting status to false since flip has ended\n            waitingStatus[waiting[_queryId].user] = false;\n           \n            //emit events\n            emit FlipCoinResult(waiting[_queryId].user, newResult.win , newResult.reward);\n            emit GeneratedRandomNumber(latestNumber);\n               \n            //reset waiting mapping\n            delete waiting[_queryId];\n        }\n    }\n\n    //function only for testing to avoid testnet delays\n    /*function testRandom() public returns(bytes32) {\n        bytes32 queryId = bytes32(keccak256(abi.encodePacked(msg.sender)));\n        __callback(queryId, \"1\", bytes(\"test\"));\n        return queryId;\n    }\n    */\n\n    function setBet(bytes32 _queryId, address payable _user, uint _betAmount, uint _headsOrTails) internal {\n        Bet memory newBet;\n        newBet.user = _user;\n        newBet.betAmount = _betAmount;\n        newBet.headsOrTails = _headsOrTails;\n        waiting[_queryId] = newBet;\n    }\n\n    function userWithdraw(address payable _to, uint _amount) public {\n        require(balances[msg.sender] >= _amount, \"Not enough funds to withdraw\");\n        balances[msg.sender] -= _amount;\n        _to.transfer(_amount);\n        emit UserWithdrawl(_to, _amount);\n    }\n\n    function ownerWithdraw(uint _amount) public onlyOwner {\n        require(_amount <= houseBalance, \"Something is wrong, houseBalance and contract balance dont match\");\n        uint toTransfer = _amount;\n        houseBalance = houseBalance - toTransfer;\n        msg.sender.transfer(toTransfer);\n        emit OwnerWithdrawl(msg.sender, toTransfer, houseBalance);\n    }\n\n    function getHouseBalance() public view returns(uint) {\n        return houseBalance;\n    }\n\n    function getUserBalance(address _user) public view returns(uint) {\n        return balances[_user];\n    }\n}",
  "sourcePath": "/Users/codymcmillan/IOT_Academy/Solidity_Advanced/Project_CoinFlip-V2/contracts/CoinFlipV2.sol",
  "compiler": {
    "name": "solc",
    "version": "0.5.12+commit.7709ece9.Emscripten.clang"
  },
  "schemaVersion": "3.0.23",
  "updatedAt": "2020-09-23T18:29:53.853Z",
  "networkType": "ethereum",
  "devdoc": {
    "methods": {
      "__callback(bytes32,string)": {
        "details": "The following `__callback` functions are just placeholders ideally     meant to be defined in child contract when proofs are used.     The function bodies simply silence compiler warnings."
      }
    }
  },
  "userdoc": {
    "methods": {}
  }
}