{
  "contractName": "CoinFlipV2",
  "abi": [
    {
      "inputs": [],
      "payable": true,
      "stateMutability": "payable",
      "type": "constructor"
    },
    {
      "anonymous": false,
      "inputs": [
        {
          "indexed": false,
          "internalType": "address",
          "name": "user",
          "type": "address"
        },
        {
          "indexed": false,
          "internalType": "bool",
          "name": "status",
          "type": "bool"
        },
        {
          "indexed": false,
          "internalType": "uint256",
          "name": "reward",
          "type": "uint256"
        }
      ],
      "name": "FlipCoinResult",
      "type": "event"
    },
    {
      "anonymous": false,
      "inputs": [
        {
          "indexed": false,
          "internalType": "uint256",
          "name": "randomNumber",
          "type": "uint256"
        }
      ],
      "name": "GeneratedRandomNumber",
      "type": "event"
    },
    {
      "anonymous": false,
      "inputs": [
        {
          "indexed": false,
          "internalType": "string",
          "name": "description",
          "type": "string"
        }
      ],
      "name": "LogNewProvableQuery",
      "type": "event"
    },
    {
      "anonymous": false,
      "inputs": [
        {
          "indexed": false,
          "internalType": "bytes32",
          "name": "queryId",
          "type": "bytes32"
        }
      ],
      "name": "LogQueryID",
      "type": "event"
    },
    {
      "anonymous": false,
      "inputs": [
        {
          "indexed": false,
          "internalType": "address",
          "name": "owner",
          "type": "address"
        },
        {
          "indexed": false,
          "internalType": "uint256",
          "name": "amount",
          "type": "uint256"
        },
        {
          "indexed": false,
          "internalType": "uint256",
          "name": "houseBalance",
          "type": "uint256"
        }
      ],
      "name": "OwnerWithdrawl",
      "type": "event"
    },
    {
      "anonymous": false,
      "inputs": [
        {
          "indexed": true,
          "internalType": "address",
          "name": "user",
          "type": "address"
        },
        {
          "indexed": false,
          "internalType": "uint256",
          "name": "amount",
          "type": "uint256"
        }
      ],
      "name": "UserWithdrawl",
      "type": "event"
    },
    {
      "anonymous": false,
      "inputs": [
        {
          "indexed": false,
          "internalType": "bool",
          "name": "status",
          "type": "bool"
        }
      ],
      "name": "WaitingStatus",
      "type": "event"
    },
    {
      "constant": true,
      "inputs": [
        {
          "internalType": "address",
          "name": "",
          "type": "address"
        }
      ],
      "name": "balances",
      "outputs": [
        {
          "internalType": "uint256",
          "name": "",
          "type": "uint256"
        }
      ],
      "payable": false,
      "stateMutability": "view",
      "type": "function"
    },
    {
      "constant": true,
      "inputs": [],
      "name": "houseBalance",
      "outputs": [
        {
          "internalType": "uint256",
          "name": "",
          "type": "uint256"
        }
      ],
      "payable": false,
      "stateMutability": "view",
      "type": "function"
    },
    {
      "constant": true,
      "inputs": [],
      "name": "latestNumber",
      "outputs": [
        {
          "internalType": "uint256",
          "name": "",
          "type": "uint256"
        }
      ],
      "payable": false,
      "stateMutability": "view",
      "type": "function"
    },
    {
      "constant": true,
      "inputs": [],
      "name": "owner",
      "outputs": [
        {
          "internalType": "address",
          "name": "",
          "type": "address"
        }
      ],
      "payable": false,
      "stateMutability": "view",
      "type": "function"
    },
    {
      "constant": true,
      "inputs": [
        {
          "internalType": "address",
          "name": "",
          "type": "address"
        }
      ],
      "name": "results",
      "outputs": [
        {
          "internalType": "uint256",
          "name": "reward",
          "type": "uint256"
        },
        {
          "internalType": "bool",
          "name": "win",
          "type": "bool"
        }
      ],
      "payable": false,
      "stateMutability": "view",
      "type": "function"
    },
    {
      "constant": true,
      "inputs": [
        {
          "internalType": "bytes32",
          "name": "",
          "type": "bytes32"
        }
      ],
      "name": "waiting",
      "outputs": [
        {
          "internalType": "address payable",
          "name": "user",
          "type": "address"
        },
        {
          "internalType": "uint256",
          "name": "betAmount",
          "type": "uint256"
        },
        {
          "internalType": "uint256",
          "name": "headsOrTails",
          "type": "uint256"
        }
      ],
      "payable": false,
      "stateMutability": "view",
      "type": "function"
    },
    {
      "constant": true,
      "inputs": [
        {
          "internalType": "address",
          "name": "",
          "type": "address"
        }
      ],
      "name": "waitingStatus",
      "outputs": [
        {
          "internalType": "bool",
          "name": "",
          "type": "bool"
        }
      ],
      "payable": false,
      "stateMutability": "view",
      "type": "function"
    },
    {
      "constant": false,
      "inputs": [
        {
          "internalType": "uint256",
          "name": "_headsOrTails",
          "type": "uint256"
        }
      ],
      "name": "flipCoin",
      "outputs": [],
      "payable": true,
      "stateMutability": "payable",
      "type": "function"
    },
    {
      "constant": false,
      "inputs": [
        {
          "internalType": "bytes32",
          "name": "_myid",
          "type": "bytes32"
        },
        {
          "internalType": "string",
          "name": "_result",
          "type": "string"
        }
      ],
      "name": "__callback",
      "outputs": [],
      "payable": false,
      "stateMutability": "nonpayable",
      "type": "function"
    },
    {
      "constant": false,
      "inputs": [
        {
          "internalType": "bytes32",
          "name": "_queryId",
          "type": "bytes32"
        },
        {
          "internalType": "string",
          "name": "_result",
          "type": "string"
        },
        {
          "internalType": "bytes",
          "name": "_proof",
          "type": "bytes"
        }
      ],
      "name": "__callback",
      "outputs": [],
      "payable": false,
      "stateMutability": "nonpayable",
      "type": "function"
    },
    {
      "constant": false,
      "inputs": [
        {
          "internalType": "address payable",
          "name": "_to",
          "type": "address"
        },
        {
          "internalType": "uint256",
          "name": "_amount",
          "type": "uint256"
        }
      ],
      "name": "userWithdraw",
      "outputs": [],
      "payable": false,
      "stateMutability": "nonpayable",
      "type": "function"
    },
    {
      "constant": false,
      "inputs": [],
      "name": "ownerWithdraw",
      "outputs": [],
      "payable": false,
      "stateMutability": "nonpayable",
      "type": "function"
    }
  ],
  "bytecode": "0x6080604052336000806101000a81548173ffffffffffffffffffffffffffffffffffffffff021916908373ffffffffffffffffffffffffffffffffffffffff160217905550671bc16d674ec80000600781905550613472806100626000396000f3fe6080604052600436106100a75760003560e01c80634a938975116100645780634a938975146104475780635f5be1f4146104b057806367084eb3146104de5780638da5cb5b14610509578063dc34b0aa14610560578063ef378f621461058b576100a7565b806327dc297e146100ac57806327e235e31461017e57806338bbfa50146101e35780633a831e071461034c5780633e458a8e146103d55780634311de8f14610430575b600080fd5b3480156100b857600080fd5b5061017c600480360360408110156100cf57600080fd5b8101908080359060200190929190803590602001906401000000008111156100f657600080fd5b82018360208201111561010857600080fd5b8035906020019184600183028401116401000000008311171561012a57600080fd5b91908080601f016020809104026020016040519081016040528093929190818152602001838380828437600081840152601f19601f8201169050808301925050505050505091929192905050506105fb565b005b34801561018a57600080fd5b506101cd600480360360208110156101a157600080fd5b81019080803573ffffffffffffffffffffffffffffffffffffffff16906020019092919050505061063e565b6040518082815260200191505060405180910390f35b3480156101ef57600080fd5b5061034a6004803603606081101561020657600080fd5b81019080803590602001909291908035906020019064010000000081111561022d57600080fd5b82018360208201111561023f57600080fd5b8035906020019184600183028401116401000000008311171561026157600080fd5b91908080601f016020809104026020016040519081016040528093929190818152602001838380828437600081840152601f19601f820116905080830192505050505050509192919290803590602001906401000000008111156102c457600080fd5b8201836020820111156102d657600080fd5b803590602001918460018302840111640100000000831117156102f857600080fd5b91908080601f016020809104026020016040519081016040528093929190818152602001838380828437600081840152601f19601f820116905080830192505050505050509192919290505050610656565b005b34801561035857600080fd5b506103856004803603602081101561036f57600080fd5b8101908080359060200190929190505050610d11565b604051808473ffffffffffffffffffffffffffffffffffffffff1673ffffffffffffffffffffffffffffffffffffffff168152602001838152602001828152602001935050505060405180910390f35b3480156103e157600080fd5b5061042e600480360360408110156103f857600080fd5b81019080803573ffffffffffffffffffffffffffffffffffffffff16906020019092919080359060200190929190505050610d5b565b005b34801561043c57600080fd5b50610445610ef6565b005b34801561045357600080fd5b506104966004803603602081101561046a57600080fd5b81019080803573ffffffffffffffffffffffffffffffffffffffff169060200190929190505050611035565b604051808215151515815260200191505060405180910390f35b6104dc600480360360208110156104c657600080fd5b8101908080359060200190929190505050611055565b005b3480156104ea57600080fd5b506104f36112ad565b6040518082815260200191505060405180910390f35b34801561051557600080fd5b5061051e6112b3565b604051808273ffffffffffffffffffffffffffffffffffffffff1673ffffffffffffffffffffffffffffffffffffffff16815260200191505060405180910390f35b34801561056c57600080fd5b506105756112d8565b6040518082815260200191505060405180910390f35b34801561059757600080fd5b506105da600480360360208110156105ae57600080fd5b81019080803573ffffffffffffffffffffffffffffffffffffffff1690602001909291905050506112de565b60405180838152602001821515151581526020019250505060405180910390f35b61063a828260006040519080825280601f01601f1916602001820160405280156106345781602001600182028038833980820191505090505b50610656565b5050565b600a6020528060005260406000206000915090505481565b61065e61130f565b73ffffffffffffffffffffffffffffffffffffffff163373ffffffffffffffffffffffffffffffffffffffff161461069557600080fd5b6002826040516020018082805190602001908083835b602083106106ce57805182526020820191506020810190506020830392506106ab565b6001836020036101000a0380198251168184511680821785525050505050509050019150506040516020818303038152906040528051906020012060001c8161071357fe5b066006819055507fd054642608b20770eee6964340fbf033dfd800f8f86a7f4aa60eb1eb3a0155906006546040518082815260200191505060405180910390a160065460086000858152602001908152602001600020600201541415610a6e5761077b6132ac565b6001816020019015159081151581525050600260086000868152602001908152602001600020600101540281600001818152505080600960006008600088815260200190815260200160002060000160009054906101000a900473ffffffffffffffffffffffffffffffffffffffff1673ffffffffffffffffffffffffffffffffffffffff1673ffffffffffffffffffffffffffffffffffffffff1681526020019081526020016000206000820151816000015560208201518160010160006101000a81548160ff0219169083151502179055509050508060000151600a60006008600088815260200190815260200160002060000160009054906101000a900473ffffffffffffffffffffffffffffffffffffffff1673ffffffffffffffffffffffffffffffffffffffff1673ffffffffffffffffffffffffffffffffffffffff168152602001908152602001600020600082825401925050819055506000600b60006008600088815260200190815260200160002060000160009054906101000a900473ffffffffffffffffffffffffffffffffffffffff1673ffffffffffffffffffffffffffffffffffffffff1673ffffffffffffffffffffffffffffffffffffffff16815260200190815260200160002060006101000a81548160ff0219169083151502179055507edbb6d905b36582c040fbe1fe37804f620a83d6a52f39544c62e96f0ed3d5286008600086815260200190815260200160002060000160009054906101000a900473ffffffffffffffffffffffffffffffffffffffff1682602001518360000151604051808473ffffffffffffffffffffffffffffffffffffffff1673ffffffffffffffffffffffffffffffffffffffff16815260200183151515158152602001828152602001935050505060405180910390a160086000858152602001908152602001600020600080820160006101000a81549073ffffffffffffffffffffffffffffffffffffffff021916905560018201600090556002820160009055505050610d0c565b600654600860008581526020019081526020016000206002015414610d0b57610a956132ac565b6000816020019015159081151581525050600081600001818152505080600960006008600088815260200190815260200160002060000160009054906101000a900473ffffffffffffffffffffffffffffffffffffffff1673ffffffffffffffffffffffffffffffffffffffff1673ffffffffffffffffffffffffffffffffffffffff1681526020019081526020016000206000820151816000015560208201518160010160006101000a81548160ff02191690831515021790555090505060086000858152602001908152602001600020600101546007600082825401925050819055506000600b60006008600088815260200190815260200160002060000160009054906101000a900473ffffffffffffffffffffffffffffffffffffffff1673ffffffffffffffffffffffffffffffffffffffff1673ffffffffffffffffffffffffffffffffffffffff16815260200190815260200160002060006101000a81548160ff0219169083151502179055507edbb6d905b36582c040fbe1fe37804f620a83d6a52f39544c62e96f0ed3d5286008600086815260200190815260200160002060000160009054906101000a900473ffffffffffffffffffffffffffffffffffffffff1682602001518360000151604051808473ffffffffffffffffffffffffffffffffffffffff1673ffffffffffffffffffffffffffffffffffffffff16815260200183151515158152602001828152602001935050505060405180910390a160086000858152602001908152602001600020600080820160006101000a81549073ffffffffffffffffffffffffffffffffffffffff0219169055600182016000905560028201600090555050505b5b505050565b60086020528060005260406000206000915090508060000160009054906101000a900473ffffffffffffffffffffffffffffffffffffffff16908060010154908060020154905083565b80600a60003373ffffffffffffffffffffffffffffffffffffffff1673ffffffffffffffffffffffffffffffffffffffff168152602001908152602001600020541015610e10576040517f08c379a000000000000000000000000000000000000000000000000000000000815260040180806020018281038252601c8152602001807f4e6f7420656e6f7567682066756e647320746f2077697468647261770000000081525060200191505060405180910390fd5b80600a60003373ffffffffffffffffffffffffffffffffffffffff1673ffffffffffffffffffffffffffffffffffffffff168152602001908152602001600020600082825403925050819055508173ffffffffffffffffffffffffffffffffffffffff166108fc829081150290604051600060405180830381858888f19350505050158015610ea3573d6000803e3d6000fd5b508173ffffffffffffffffffffffffffffffffffffffff167f94b43fa2fd20b96bc79e0b6bd4a41933cef3e7d3d1be433287da45aec1066133826040518082815260200191505060405180910390a25050565b6000809054906101000a900473ffffffffffffffffffffffffffffffffffffffff1673ffffffffffffffffffffffffffffffffffffffff163373ffffffffffffffffffffffffffffffffffffffff1614610f4f57600080fd5b60003073ffffffffffffffffffffffffffffffffffffffff1631905080600754036007819055503373ffffffffffffffffffffffffffffffffffffffff166108fc829081150290604051600060405180830381858888f19350505050158015610fbc573d6000803e3d6000fd5b507ffabbdff833edbf727f39832bffbd86371968fe21eff1f7e787a39ddbc28c075d3382600754604051808473ffffffffffffffffffffffffffffffffffffffff1673ffffffffffffffffffffffffffffffffffffffff168152602001838152602001828152602001935050505060405180910390a150565b600b6020528060005260406000206000915054906101000a900460ff1681565b660e35fa931a00008034101561106a57600080fd5b60001515600b60003373ffffffffffffffffffffffffffffffffffffffff1673ffffffffffffffffffffffffffffffffffffffff16815260200190815260200160002060009054906101000a900460ff16151514611130576040517f08c379a00000000000000000000000000000000000000000000000000000000081526004018080602001828103825260178152602001807f796f752061726520616c726561647920706c6179696e6700000000000000000081525060200191505060405180910390fd5b3073ffffffffffffffffffffffffffffffffffffffff16316002340211156111a3576040517f08c379a000000000000000000000000000000000000000000000000000000000815260040180806020018281038252603181526020018061340d6031913960400191505060405180910390fd5b6000809050600062030d40905060006111be8360018461162f565b90507fc4dc360d0a9c0677a3379ae0a3d81e887f761e65fdf3d7e00859d1bcd3c473896040518080602001828103825260278152602001806133e66027913960400191505060405180910390a16001600b60003373ffffffffffffffffffffffffffffffffffffffff1673ffffffffffffffffffffffffffffffffffffffff16815260200190815260200160002060006101000a81548160ff02191690831515021790555061126f81333488611bca565b7fd02b34491cb9c22e0422e9d84ad8494da4d14ca4691a110bdfc5dec273ebe12c816040518082815260200191505060405180910390a15050505050565b60075481565b6000809054906101000a900473ffffffffffffffffffffffffffffffffffffffff1681565b60065481565b60096020528060005260406000206000915090508060000154908060010160009054906101000a900460ff16905082565b60008073ffffffffffffffffffffffffffffffffffffffff16600260009054906101000a900473ffffffffffffffffffffffffffffffffffffffff1673ffffffffffffffffffffffffffffffffffffffff16148061139757506000611395600260009054906101000a900473ffffffffffffffffffffffffffffffffffffffff16611ca6565b145b156113a8576113a66000611cb1565b505b600260009054906101000a900473ffffffffffffffffffffffffffffffffffffffff1673ffffffffffffffffffffffffffffffffffffffff166338cc48316040518163ffffffff1660e01b8152600401602060405180830381600087803b15801561141257600080fd5b505af1158015611426573d6000803e3d6000fd5b505050506040513d602081101561143c57600080fd5b810190808051906020019092919050505073ffffffffffffffffffffffffffffffffffffffff16600160009054906101000a900473ffffffffffffffffffffffffffffffffffffffff1673ffffffffffffffffffffffffffffffffffffffff161461158757600260009054906101000a900473ffffffffffffffffffffffffffffffffffffffff1673ffffffffffffffffffffffffffffffffffffffff166338cc48316040518163ffffffff1660e01b8152600401602060405180830381600087803b15801561150b57600080fd5b505af115801561151f573d6000803e3d6000fd5b505050506040513d602081101561153557600080fd5b8101908080519060200190929190505050600160006101000a81548173ffffffffffffffffffffffffffffffffffffffff021916908373ffffffffffffffffffffffffffffffffffffffff1602179055505b600160009054906101000a900473ffffffffffffffffffffffffffffffffffffffff1673ffffffffffffffffffffffffffffffffffffffff1663c281d19e6040518163ffffffff1660e01b815260040160206040518083038186803b1580156115ef57600080fd5b505afa158015611603573d6000803e3d6000fd5b505050506040513d602081101561161957600080fd5b8101908080519060200190929190505050905090565b60008083118015611641575060208311155b61164a57600080fd5b600a84029350606060016040519080825280601f01601f1916602001820160405280156116865781602001600182028038833980820191505090505b5090508360f81b8160008151811061169a57fe5b60200101907effffffffffffffffffffffffffffffffffffffffffffffffffffffffffffff1916908160001a905350606060206040519080825280601f01601f1916602001820160405280156116ff5781602001600182028038833980820191505090505b509050606060206040519080825280601f01601f1916602001820160405280156117385781602001600182028038833980820191505090505b5090506000611745611cc2565b905060208352424118600143034018602084015260208252806020830152606060206040519080825280601f01601f1916602001820160405280156117995781602001600182028038833980820191505090505b509050886020820152606060086040519080825280601f01601f1916602001820160405280156117d85781602001600182028038833980820191505090505b5090506117eb8260186008846000611fe2565b506117f46132c8565b604051806080016040528087815260200188815260200186815260200184815250905060006118596040518060400160405280600681526020017f72616e646f6d0000000000000000000000000000000000000000000000000000815250838c612041565b9050606060086040519080825280601f01601f1916602001820160405280156118915781602001600182028038833980820191505090505b50905060208401517f0100000000000000000000000000000000000000000000000000000000000000810460278301537e01000000000000000000000000000000000000000000000000000000000000810460268301537d010000000000000000000000000000000000000000000000000000000000810460258301537c0100000000000000000000000000000000000000000000000000000000810460248301537b01000000000000000000000000000000000000000000000000000000810460238301537a010000000000000000000000000000000000000000000000000000810460228301537901000000000000000000000000000000000000000000000000008104602183015378010000000000000000000000000000000000000000000000008104602083015350611bb78282856001600481106119d057fe5b60200201516002876000600481106119e457fe5b60200201516040518082805190602001908083835b60208310611a1c57805182526020820191506020810190506020830392506119f9565b6001836020036101000a038019825116818451168082178552505050505050905001915050602060405180830381855afa158015611a5e573d6000803e3d6000fd5b5050506040513d6020811015611a7357600080fd5b810190808051906020019092919050505087600260048110611a9157fe5b60200201516040516020018085805190602001908083835b60208310611acc5780518252602082019150602081019050602083039250611aa9565b6001836020036101000a03801982511681845116808217855250505050505090500184805190602001908083835b60208310611b1d5780518252602082019150602081019050602083039250611afa565b6001836020036101000a03801982511681845116808217855250505050505090500183815260200182805190602001908083835b60208310611b745780518252602082019150602081019050602083039250611b51565b6001836020036101000a038019825116818451168082178552505050505050905001945050505050604051602081830303815290604052805190602001206123b0565b8199505050505050505050509392505050565b6000660e35fa931a00009050611bde6132ef565b84816000019073ffffffffffffffffffffffffffffffffffffffff16908173ffffffffffffffffffffffffffffffffffffffff168152505081840381602001818152505082816040018181525050806008600088815260200190815260200160002060008201518160000160006101000a81548173ffffffffffffffffffffffffffffffffffffffff021916908373ffffffffffffffffffffffffffffffffffffffff1602179055506020820151816001015560408201518160020155905050505050505050565b6000813b9050919050565b6000611cbb6123cc565b9050919050565b60008073ffffffffffffffffffffffffffffffffffffffff16600260009054906101000a900473ffffffffffffffffffffffffffffffffffffffff1673ffffffffffffffffffffffffffffffffffffffff161480611d4a57506000611d48600260009054906101000a900473ffffffffffffffffffffffffffffffffffffffff16611ca6565b145b15611d5b57611d596000611cb1565b505b600260009054906101000a900473ffffffffffffffffffffffffffffffffffffffff1673ffffffffffffffffffffffffffffffffffffffff166338cc48316040518163ffffffff1660e01b8152600401602060405180830381600087803b158015611dc557600080fd5b505af1158015611dd9573d6000803e3d6000fd5b505050506040513d6020811015611def57600080fd5b810190808051906020019092919050505073ffffffffffffffffffffffffffffffffffffffff16600160009054906101000a900473ffffffffffffffffffffffffffffffffffffffff1673ffffffffffffffffffffffffffffffffffffffff1614611f3a57600260009054906101000a900473ffffffffffffffffffffffffffffffffffffffff1673ffffffffffffffffffffffffffffffffffffffff166338cc48316040518163ffffffff1660e01b8152600401602060405180830381600087803b158015611ebe57600080fd5b505af1158015611ed2573d6000803e3d6000fd5b505050506040513d6020811015611ee857600080fd5b8101908080519060200190929190505050600160006101000a81548173ffffffffffffffffffffffffffffffffffffffff021916908373ffffffffffffffffffffffffffffffffffffffff1602179055505b600160009054906101000a900473ffffffffffffffffffffffffffffffffffffffff1673ffffffffffffffffffffffffffffffffffffffff1663abaa5f3e6040518163ffffffff1660e01b815260040160206040518083038186803b158015611fa257600080fd5b505afa158015611fb6573d6000803e3d6000fd5b505050506040513d6020811015611fcc57600080fd5b8101908080519060200190929190505050905090565b6060600082850190508084511015611ff957600080fd5b600086602001905060008460200190505b868860200101821015612032578189015180828801525060208201915060208101905061200a565b85935050505095945050505050565b60008073ffffffffffffffffffffffffffffffffffffffff16600260009054906101000a900473ffffffffffffffffffffffffffffffffffffffff1673ffffffffffffffffffffffffffffffffffffffff1614806120c9575060006120c7600260009054906101000a900473ffffffffffffffffffffffffffffffffffffffff16611ca6565b145b156120da576120d86000611cb1565b505b600260009054906101000a900473ffffffffffffffffffffffffffffffffffffffff1673ffffffffffffffffffffffffffffffffffffffff166338cc48316040518163ffffffff1660e01b8152600401602060405180830381600087803b15801561214457600080fd5b505af1158015612158573d6000803e3d6000fd5b505050506040513d602081101561216e57600080fd5b810190808051906020019092919050505073ffffffffffffffffffffffffffffffffffffffff16600160009054906101000a900473ffffffffffffffffffffffffffffffffffffffff1673ffffffffffffffffffffffffffffffffffffffff16146122b957600260009054906101000a900473ffffffffffffffffffffffffffffffffffffffff1673ffffffffffffffffffffffffffffffffffffffff166338cc48316040518163ffffffff1660e01b8152600401602060405180830381600087803b15801561223d57600080fd5b505af1158015612251573d6000803e3d6000fd5b505050506040513d602081101561226757600080fd5b8101908080519060200190929190505050600160006101000a81548173ffffffffffffffffffffffffffffffffffffffff021916908373ffffffffffffffffffffffffffffffffffffffff1602179055505b606060046040519080825280602002602001820160405280156122f057816020015b60608152602001906001900390816122db5790505b5090508360006004811061230057fe5b60200201518160008151811061231257fe5b60200260200101819052508360016004811061232a57fe5b60200201518160018151811061233c57fe5b60200260200101819052508360026004811061235457fe5b60200201518160028151811061236657fe5b60200260200101819052508360036004811061237e57fe5b60200201518160038151811061239057fe5b60200260200101819052506123a6858285612923565b9150509392505050565b8060046000848152602001908152602001600020819055505050565b6000806123ec731d3b2638a7cc9f2cb3d298a3da7a90b67e5506ed611ca6565b111561248e57731d3b2638a7cc9f2cb3d298a3da7a90b67e5506ed600260006101000a81548173ffffffffffffffffffffffffffffffffffffffff021916908373ffffffffffffffffffffffffffffffffffffffff1602179055506124856040518060400160405280600b81526020017f6574685f6d61696e6e6574000000000000000000000000000000000000000000815250612e89565b60019050612920565b60006124ad73c03a2615d5efaf5f49f60b7bb6583eaec212fdf1611ca6565b111561254f5773c03a2615d5efaf5f49f60b7bb6583eaec212fdf1600260006101000a81548173ffffffffffffffffffffffffffffffffffffffff021916908373ffffffffffffffffffffffffffffffffffffffff1602179055506125466040518060400160405280600c81526020017f6574685f726f707374656e330000000000000000000000000000000000000000815250612e89565b60019050612920565b600061256e73b7a07bcf2ba2f2703b24c0691b5278999c59ac7e611ca6565b11156126105773b7a07bcf2ba2f2703b24c0691b5278999c59ac7e600260006101000a81548173ffffffffffffffffffffffffffffffffffffffff021916908373ffffffffffffffffffffffffffffffffffffffff1602179055506126076040518060400160405280600981526020017f6574685f6b6f76616e0000000000000000000000000000000000000000000000815250612e89565b60019050612920565b600061262f73146500cfd35b22e4a392fe0adc06de1a1368ed48611ca6565b11156126d15773146500cfd35b22e4a392fe0adc06de1a1368ed48600260006101000a81548173ffffffffffffffffffffffffffffffffffffffff021916908373ffffffffffffffffffffffffffffffffffffffff1602179055506126c86040518060400160405280600b81526020017f6574685f72696e6b656279000000000000000000000000000000000000000000815250612e89565b60019050612920565b60006126f073a2998efd205fb9d4b4963afb70778d6354ad3a41611ca6565b11156127925773a2998efd205fb9d4b4963afb70778d6354ad3a41600260006101000a81548173ffffffffffffffffffffffffffffffffffffffff021916908373ffffffffffffffffffffffffffffffffffffffff1602179055506127896040518060400160405280600a81526020017f6574685f676f65726c6900000000000000000000000000000000000000000000815250612e89565b60019050612920565b60006127b1736f485c8bf6fc43ea212e93bbf8ce046c7f1cb475611ca6565b111561281557736f485c8bf6fc43ea212e93bbf8ce046c7f1cb475600260006101000a81548173ffffffffffffffffffffffffffffffffffffffff021916908373ffffffffffffffffffffffffffffffffffffffff16021790555060019050612920565b60006128347320e12a1f859b3feae5fb2a0a32c18f5a65555bbf611ca6565b1115612898577320e12a1f859b3feae5fb2a0a32c18f5a65555bbf600260006101000a81548173ffffffffffffffffffffffffffffffffffffffff021916908373ffffffffffffffffffffffffffffffffffffffff16021790555060019050612920565b60006128b77351efaf4c8b3c9afbd5ab9f4bbc82784ab6ef8faa611ca6565b111561291b577351efaf4c8b3c9afbd5ab9f4bbc82784ab6ef8faa600260006101000a81548173ffffffffffffffffffffffffffffffffffffffff021916908373ffffffffffffffffffffffffffffffffffffffff16021790555060019050612920565b600090505b90565b60008073ffffffffffffffffffffffffffffffffffffffff16600260009054906101000a900473ffffffffffffffffffffffffffffffffffffffff1673ffffffffffffffffffffffffffffffffffffffff1614806129ab575060006129a9600260009054906101000a900473ffffffffffffffffffffffffffffffffffffffff16611ca6565b145b156129bc576129ba6000611cb1565b505b600260009054906101000a900473ffffffffffffffffffffffffffffffffffffffff1673ffffffffffffffffffffffffffffffffffffffff166338cc48316040518163ffffffff1660e01b8152600401602060405180830381600087803b158015612a2657600080fd5b505af1158015612a3a573d6000803e3d6000fd5b505050506040513d6020811015612a5057600080fd5b810190808051906020019092919050505073ffffffffffffffffffffffffffffffffffffffff16600160009054906101000a900473ffffffffffffffffffffffffffffffffffffffff1673ffffffffffffffffffffffffffffffffffffffff1614612b9b57600260009054906101000a900473ffffffffffffffffffffffffffffffffffffffff1673ffffffffffffffffffffffffffffffffffffffff166338cc48316040518163ffffffff1660e01b8152600401602060405180830381600087803b158015612b1f57600080fd5b505af1158015612b33573d6000803e3d6000fd5b505050506040513d6020811015612b4957600080fd5b8101908080519060200190929190505050600160006101000a81548173ffffffffffffffffffffffffffffffffffffffff021916908373ffffffffffffffffffffffffffffffffffffffff1602179055505b6000600160009054906101000a900473ffffffffffffffffffffffffffffffffffffffff1673ffffffffffffffffffffffffffffffffffffffff16632ef3accc86856040518363ffffffff1660e01b81526004018080602001838152602001828103825284818151815260200191508051906020019080838360005b83811015612c32578082015181840152602081019050612c17565b50505050905090810190601f168015612c5f5780820380516001836020036101000a031916815260200191505b509350505050602060405180830381600087803b158015612c7f57600080fd5b505af1158015612c93573d6000803e3d6000fd5b505050506040513d6020811015612ca957600080fd5b81019080805190602001909291905050509050823a02670de0b6b3a764000001811115612cdc576000801b915050612e82565b6060612ce785612ea3565b9050600160009054906101000a900473ffffffffffffffffffffffffffffffffffffffff1673ffffffffffffffffffffffffffffffffffffffff1663c55c1cb68360008985896040518663ffffffff1660e01b8152600401808581526020018060200180602001848152602001838103835286818151815260200191508051906020019080838360005b83811015612d8c578082015181840152602081019050612d71565b50505050905090810190601f168015612db95780820380516001836020036101000a031916815260200191505b50838103825285818151815260200191508051906020019080838360005b83811015612df2578082015181840152602081019050612dd7565b50505050905090810190601f168015612e1f5780820380516001836020036101000a031916815260200191505b5096505050505050506020604051808303818588803b158015612e4157600080fd5b505af1158015612e55573d6000803e3d6000fd5b50505050506040513d6020811015612e6c57600080fd5b8101908080519060200190929190505050925050505b9392505050565b8060039080519060200190612e9f929190613326565b5050565b6060612ead612f23565b612eb56133a6565b612ec181610400612f2f565b612eca81612f79565b60008090505b8351811015612f0c57612eff848281518110612ee857fe5b602002602001015183612f8790919063ffffffff16565b8080600101915050612ed0565b50612f1681612fac565b8060000151915050919050565b60405180590338823950565b6000819050600060208281612f4057fe5b0614612f595760208181612f5057fe5b06602003810190505b808360200181815250506040518084526000815281810160405250505050565b612f84816004612fba565b50565b612f948260028351612fdb565b612fa7818361311b90919063ffffffff16565b505050565b612fb7816007612fba565b50565b612fd7601f60058360ff16901b17836131c690919063ffffffff16565b5050565b60178111613007576130028160058460ff16901b60ff1617846131c690919063ffffffff16565b613116565b60ff81116130485761302c601860058460ff16901b17846131c690919063ffffffff16565b613042816001856132069092919063ffffffff16565b50613115565b61ffff811161308a5761306e601960058460ff16901b17846131c690919063ffffffff16565b613084816002856132069092919063ffffffff16565b50613114565b63ffffffff81116130ce576130b2601a60058460ff16901b17846131c690919063ffffffff16565b6130c8816004856132069092919063ffffffff16565b50613113565b67ffffffffffffffff8111613112576130fa601b60058460ff16901b17846131c690919063ffffffff16565b613110816008856132069092919063ffffffff16565b505b5b5b5b5b505050565b6131236133a6565b826020015183600001515183510111156131535761315283600261314c8660200151865161326d565b02613289565b5b60008060008451905085518051602081830101945086518101825260208701935050505b6020811061319a5781518352602083019250602082019150602081039050613177565b60006001826020036101000a039050801983511681855116818117865250508694505050505092915050565b816020015160018360000151510111156131ec576131eb826002846020015102613289565b5b815180516020818301018381536001820183525050505050565b61320e6133a6565b83602001518460000151518301111561323c5761323b84600261323587602001518661326d565b02613289565b5b60006001836101000a0390508451805184818301018684198251161781528582018352505050849150509392505050565b60008183111561327f57829050613283565b8190505b92915050565b60608260000151905061329c8383612f2f565b6132a6838261311b565b50505050565b6040518060400160405280600081526020016000151581525090565b60405180608001604052806004905b60608152602001906001900390816132d75790505090565b6040518060600160405280600073ffffffffffffffffffffffffffffffffffffffff16815260200160008152602001600081525090565b828054600181600116156101000203166002900490600052602060002090601f016020900481019282601f1061336757805160ff1916838001178555613395565b82800160010185558215613395579182015b82811115613394578251825591602001919060010190613379565b5b5090506133a291906133c0565b5090565b604051806040016040528060608152602001600081525090565b6133e291905b808211156133de5760008160009055506001016133c6565b5090565b9056fe50726f7661626c65207175657279207761732073656e742c206177616974696e67207265706c795468652062657420616d6f756e742063616e6e6f7420657863656564207468652070617961626c65206a61636b706f7421a265627a7a723158203bb702417eb5495a1d74cd6be1d944516c8c9e39cfd618514d0dd214f0ecddf364736f6c634300050c0032",
  "source": "pragma solidity 0.5.12;\n\nimport \"./Ownable.sol\";\n//import \"@openzeppelin/contracts/math/SafeMath.sol\";\nimport \"./provableAPI.sol\";\n\n\ncontract CoinFlipV2 is Ownable, usingProvable {\n //   using SafeMath for uint;\n\n    //Variables\n    uint constant NUM_RANDOM_BYTES_REQUESTED = 1;\n    uint public latestNumber;\n    uint public houseBalance;\n\n    //Modifiers\n    modifier costs(uint value) {\n        //using this to forward oracle call fee to betting user\n        require(msg.value >= value);\n        _;\n    }\n\n    //structs\n    struct Bet {\n        address payable user;\n        uint betAmount;\n        uint headsOrTails;\n    }\n\n    struct Result {\n        uint reward;\n        bool win;\n    }\n\n    //Mappings\n    mapping(bytes32 => Bet) public waiting;\n    mapping(address => Result) public results;\n    mapping(address => uint) public balances;\n    mapping(address => bool) public waitingStatus;\n\n    //Events\n    event FlipCoinResult (address user, bool status, uint reward);\n    event LogNewProvableQuery (string description);\n    event GeneratedRandomNumber (uint randomNumber);\n    event WaitingStatus (bool status);\n    event LogQueryID (bytes32 queryId);\n    event OwnerWithdrawl (address owner, uint amount, uint houseBalance);\n    event UserWithdrawl (address indexed user, uint amount);\n    \n    //Constructor\n    constructor() public payable {\n        houseBalance = 2 ether;\n    }\n\n    //Functions\n    function flipCoin(uint _headsOrTails) public payable costs(0.004 ether) {\n        require(waitingStatus[msg.sender] == false, \"you are already playing\");\n        require((msg.value * 2) <= (address(this).balance), \"The bet amount cannot exceed the payable jackpot!\");\n\n        //starting oracle call\n        uint QUERY_EXECUTION_DELAY = 0;\n        uint GAS_FOR_CALLBACK = 200000;\n\n        //below can be un-commented along with testRandom function for testing off-chain\n        //bytes32 queryId = testRandom();\n\n        bytes32 queryId = provable_newRandomDSQuery(\n            QUERY_EXECUTION_DELAY,\n            NUM_RANDOM_BYTES_REQUESTED,\n            GAS_FOR_CALLBACK\n            );\n        \n        emit LogNewProvableQuery(\"Provable query was sent, awaiting reply\");\n\n        // set player waiting to true\n        waitingStatus[msg.sender] = true;\n\n        //set user and bet amounts in mappings\n        setBet(queryId, msg.sender, msg.value, _headsOrTails);\n\n        //log qery id event emitted\n        emit LogQueryID(queryId);\n    }\n\n    function __callback(bytes32 _queryId, string memory _result, bytes memory _proof) public {\n        require(msg.sender == provable_cbAddress());\n        latestNumber = uint(keccak256(abi.encodePacked(_result))) % 2;\n        \n        //emit event with latest random number generated\n        emit GeneratedRandomNumber(latestNumber);\n\n        //to do\n        // if random number is equal to user heads or tails then double reward and add t user balance. remove that amount fromm housebalance\n        // else add betamount to housebalance\n        // emit generated random number\n        // emit flip coin result\n\n        if (waiting[_queryId].headsOrTails == latestNumber) {\n            //create new result to log users win\n            Result memory newResult;\n            newResult.win = true;\n            newResult.reward = waiting[_queryId].betAmount * 2;\n            results[waiting[_queryId].user] = newResult;\n\n            //add reward to user balance\n            balances[waiting[_queryId].user] += newResult.reward;\n\n            //set waiting status to false since flip has ended\n            waitingStatus[waiting[_queryId].user] = false;\n\n            //emit flip result event\n            emit FlipCoinResult(waiting[_queryId].user, newResult.win , newResult.reward);  \n            \n            //reset waiting mapping\n            delete waiting[_queryId];\n        }\n        \n        else if (waiting[_queryId].headsOrTails != latestNumber) { \n            //create new result to log the users losing flip\n            Result memory newResult;\n            newResult.win = false;\n            newResult.reward = 0;\n            results[waiting[_queryId].user] = newResult;\n\n            //add bet amount to house balance\n            houseBalance += waiting[_queryId].betAmount;\n           \n            //set waiting status to false since flip has ended\n            waitingStatus[waiting[_queryId].user] = false;\n           \n            //emit events\n            emit FlipCoinResult(waiting[_queryId].user, newResult.win , newResult.reward);\n               \n            //reset waiting mapping\n            delete waiting[_queryId];\n        }\n    }\n\n    //function only for testing to avoid testnet delays\n    /*function testRandom() public returns(bytes32) {\n        bytes32 queryId = bytes32(keccak256(abi.encodePacked(msg.sender)));\n        __callback(queryId, \"1\", bytes(\"test\"));\n        return queryId;\n    }\n    */\n\n    function setBet(bytes32 _queryId, address payable _user, uint _betAmount, uint _headsOrTails) internal {\n        uint cost = .004 ether;\n        Bet memory newBet;\n        newBet.user = _user;\n        newBet.betAmount = _betAmount - cost;\n        newBet.headsOrTails = _headsOrTails;\n        waiting[_queryId] = newBet;\n    }\n\n    function userWithdraw(address payable _to, uint _amount) public {\n        require(balances[msg.sender] >= _amount, \"Not enough funds to withdraw\");\n        balances[msg.sender] -= _amount;\n        _to.transfer(_amount);\n        emit UserWithdrawl(_to, _amount);\n    }\n\n    function ownerWithdraw() public onlyOwner {\n        uint toTransfer = address(this).balance;\n        houseBalance = houseBalance - toTransfer;\n        msg.sender.transfer(toTransfer);\n        emit OwnerWithdrawl(msg.sender, toTransfer, houseBalance);\n    }\n}",
  "sourcePath": "/Users/codymcmillan/IOT_Academy/Solidity_Advanced/Project_CoinFlip-V2/contracts/CoinFlipV2.sol",
  "compiler": {
    "name": "solc",
    "version": "0.5.12+commit.7709ece9.Emscripten.clang"
  },
  "schemaVersion": "3.0.23",
  "updatedAt": "2020-09-25T00:15:53.993Z",
  "networkType": "ethereum",
  "devdoc": {
    "methods": {
      "__callback(bytes32,string)": {
        "details": "The following `__callback` functions are just placeholders ideally     meant to be defined in child contract when proofs are used.     The function bodies simply silence compiler warnings."
      }
    }
  },
  "userdoc": {
    "methods": {}
  }
}